:020000040800F2
:1000000000500020DD040008210400082D04000831
:1000100033040008390400083F0400080000000011
:10002000000000000000000000000000450400087F
:1000300051040008000000005D0400086904000885
:1000400025050008250500082505000825050008E8
:1000500025050008250500082505000825050008D8
:1000600025050008250500082505000825050008C8
:1000700025050008250500082505000825050008B8
:1000800025050008250500082505000825050008A8
:100090002505000825050008250500082505000898
:1000A0002505000825050008250500082505000888
:1000B0002505000825050008250500082505000878
:1000C0002505000825050008250500082505000868
:1000D0002505000825050008250500082505000858
:1000E000250500082505000825050008000000007A
:1000F0000000000000000000000000000000000000
:0C01000000000000000000005FF808F1A3
:10010C0010B5054C237833B9044B13B10448AFF345
:10011C0000800123237010BD3C040020000000006F
:10012C005019000808B5034B1BB103490348AFF342
:10013C00008008BD00000000400400205019000899
:10014C0080B582B000AF00F0E9F900F023F800F0C0
:10015C0091F800F065F84FF400510B4800F0B8FC32
:10016C00C82000F03DFA094A3B4692E803001860AB
:10017C000433198002330A0C1A7039460A230722F9
:10018C00034801F026F9E6E7001001406819000861
:10019C005804002080B590B000AF07F11803282256
:1001AC000021184601F0F6FA3B1D00221A605A6035
:1001BC009A60DA601A610123BB614FF48033FB61F2
:1001CC0000233B620123BB6202237B634FF4803329
:1001DC00BB634FF4E013FB6307F11803184600F000
:1001EC008FFC0346002B01D000F090F80F237B60AE
:1001FC000223BB600023FB604FF480633B61002350
:10020C007B613B1D0221184600F0FAFE0346002BD1
:10021C0001D000F07BF800BF4037BD4680BD000028
:10022C0080B500AF114B124A1A60104B4FF4E132FB
:10023C005A600E4B00229A600C4B0022DA600B4B7A
:10024C0000221A61094B0C225A61084B00229A6158
:10025C00064B0022DA61054801F06EF80346002BCC
:10026C0001D000F053F800BF80BD00BF580400203F
:10027C000038014080B588B000AF07F110030022B0
:10028C001A605A609A60DA601E4B9B691D4A43F0F3
:10029C00100393611B4B9B6903F01003FB60FB681D
:1002AC00184B9B69174A43F020039361154B9B69CC
:1002BC0003F02003BB60BB68124B9B69114A43F0EF
:1002CC00040393610F4B9B6903F004037B607B6811
:1002DC0000224FF400510C4800F0E2FB4FF40053A5
:1002EC003B6101237B610023BB610223FB6107F1AE
:1002FC0010031946044800F079FA00BF2037BD46B8
:10030C0080BD00BF001002400010014080B400AF5F
:10031C0000BFBD4680BC704780B485B000AF154BA4
:10032C009B69144A43F001039361124B9B6903F0E0
:10033C000103BB60BB680F4BDB690E4A43F0805373
:10034C00D3610C4BDB6903F080537B607B680A4BF9
:10035C005B68FB60FB6823F0E063FB60FB6843F0C9
:10036C008063FB60044AFB68536000BF1437BD46D2
:10037C0080BC7047001002400000014080B588B07E
:10038C0000AF786007F1100300221A605A609A607F
:10039C00DA607B681B681C4A934231D11B4B9B690A
:1003AC001A4A43F480439361184B9B6903F48043CE
:1003BC00FB60FB68154B9B69144A43F00403936183
:1003CC00124B9B6903F00403BB60BB684FF40073D2
:1003DC003B6102237B610323FB6107F11003194688
:1003EC000B4800F003FA4FF480633B6100237B6100
:1003FC000023BB6107F110031946054800F0F6F91C
:10040C0000BF2037BD4680BD0038014000100240BF
:10041C000008014080B400AF00BFBD4680BC7047EF
:10042C0080B400AFFEE780B400AFFEE780B400AF4D
:10043C00FEE780B400AFFEE780B400AF00BFBD465E
:10044C0080BC704780B400AF00BFBD4680BC704715
:10045C0080B400AF00BFBD4680BC704780B500AF14
:10046C0000F0A2F800BF80BD80B400AF154B1B6834
:10047C00144A43F001031360124B5A681149124B92
:10048C0013404B600F4B1B680E4A23F0847323F40C
:10049C00803313600B4B1B680A4A23F480231360D0
:1004AC00084B5B68074A23F4FE035360054B4FF47B
:1004BC001F029A60054B4FF000629A6000BFBD4668
:1004CC0080BC7047001002400000FFF800ED00E017
:1004DC00002103E00B4B5B58435004310A480B4B93
:1004EC0042189A42F6D30A4A02E0002342F8043B2F
:1004FC00084B9A42F9D3FFF7B7FF01F027F9FFF742
:10050C001FFE7047AC190008000000203C040020BE
:10051C003C040020C0040020FEE7000080B500AFC2
:10052C00084B1B68074A43F010031360032000F0CC
:10053C0029F9002000F008F8FFF7EEFE002318461A
:10054C0080BD00BF0020024080B582B000AF786053
:10055C00124B1A68124B1B7819464FF47A73B3FB83
:10056C00F1F3B2FBF3F3184600F033F90346002B1A
:10057C0001D001230EE07B680F2B0AD8002279688A
:10058C004FF0FF3000F009F9064A7B681360002336
:10059C0000E0012318460837BD4680BD000000204E
:1005AC00080000200400002080B400AF054B1B782D
:1005BC001A46054B1B681344034A136000BFBD4623
:1005CC0080BC7047080000209804002080B400AF65
:1005DC00024B1B681846BD4680BC7047980400202F
:1005EC0080B584B000AF7860FFF7F0FFB8607B682F
:1005FC00FB60FB68B3F1FF3F05D0094B1B781A4633
:10060C00FB681344FB6000BFFFF7E0FF0246BB68CA
:10061C00D31AFA689A42F7D800BF1037BD4680BD8E
:10062C000800002080B485B000AF78607B6803F0D0
:10063C000703FB600C4BDB68BB60BA684FF6FF032B
:10064C001340BB60FB681A02BB68134343F0BF63E3
:10065C0043F40033BB60044ABB68D36000BF14375B
:10066C00BD4680BC704700BF00ED00E080B400AF19
:10067C00044BDB681B0A03F007031846BD4680BC1D
:10068C00704700BF00ED00E080B483B000AF0346BC
:10069C003960FB7197F90730002B0ADB3B68DAB243
:1006AC000C4997F907301201D2B20B4483F800239E
:1006BC000AE03B68DAB20849FB7903F00F03043B0C
:1006CC001201D2B20B441A7600BF0C37BD4680BC67
:1006DC00704700BF00E100E000ED00E080B489B09D
:1006EC0000AFF860B9607A60FB6803F00703FB6148
:1006FC00FB69C3F10703042B28BF0423BB61FB690F
:10070C000433062B02D9FB69033B00E000237B6119
:10071C004FF0FF32BB6902FA03F3DA43BB681A40AD
:10072C007B699A404FF0FF317B6901FA03F3D9439F
:10073C007B680B40134318462437BD4680BC70477A
:10074C0080B582B000AF78607B68013BB3F1807FED
:10075C0001D301230FE00A4A7B68013B53600F2150
:10076C004FF0FF30FFF790FF054B00229A60044BCF
:10077C0007221A60002318460837BD4680BD00BF0B
:10078C0010E000E080B582B000AF78607868FFF7C9
:10079C0049FF00BF0837BD4680BD80B586B000AFAD
:1007AC000346B9607A60FB7300237B61FFF75EFF41
:1007BC0078617A68B9687869FFF790FF024697F913
:1007CC000F3011461846FFF75FFF00BF1837BD46C4
:1007DC0080BD80B582B000AF78607868FFF7B0FF5D
:1007EC00034618460837BD4680BD000080B48BB068
:1007FC0000AF7860396000237B6200233B6227E105
:10080C0001227B6A02FA03F3FB613B681B68FA69FD
:10081C001340BB61BA69FB699A4240F016813B6890
:10082C005B68122B34D0122B0DD8022B2BD0022B41
:10083C0004D8002B31D0012B1CD048E0032B43D023
:10084C00112B1BD043E0894A934226D0874A93420E
:10085C0006D8874A934220D0864A93421DD036E070
:10086C00854A934219D0854A934216D0844A9342C2
:10087C0013D02CE03B68DB683B6228E03B68DB680C
:10088C0004333B6223E03B68DB6808333B621EE0C9
:10089C003B68DB680C333B6219E03B689B68002BC0
:1008AC0002D104233B6212E03B689B68012B05D10B
:1008BC0008233B627B68FA691A6108E008233B62F3
:1008CC007B68FA695A6102E000233B6200BFBB6996
:1008DC00FF2B01D87B6801E07B6804337B61BB692B
:1008EC00FF2B02D87B6A9B0002E07B6A083B9B00D3
:1008FC003B617B691A680F213B6901FA03F3DB4307
:10090C001A40396A3B6901FA03F31A437B691A608E
:10091C003B685B6803F08053002B00F09680594BCA
:10092C009B69584A43F001039361564B9B6903F052
:10093C000103BB60BB68544A7B6A9B08023352F8C4
:10094C002330FB607B6A03F003039B000F2202FA47
:10095C0003F3DB43FA681340FB607B684B4A93421A
:10096C0013D07B684A4A93420DD07B68494A934224
:10097C0007D07B68484A934201D1032306E0042345
:10098C0004E0022302E0012300E000237A6A02F073
:10099C00030292009340FA681343FB603A497B6A66
:1009AC009B080233FA6841F823203B685B6803F428
:1009BC008033002B06D0394B1A683849BB69134376
:1009CC000B6006E0354B1A68BB69DB4333491340B7
:1009DC000B603B685B6803F40033002B06D02F4B95
:1009EC005A682E49BB6913434B6006E02B4B5A687F
:1009FC00BB69DB43294913404B603B685B6803F4DC
:100A0C008013002B06D0254B9A682449BB691343ED
:100A1C008B6006E0214B9A68BB69DB431F4913408E
:100A2C008B603B685B6803F40013002B06D01B4BF8
:100A3C00DA681A49BB691343CB6006E0174BDA68D6
:100A4C00BB69DB4315491340CB607B6A01337B6286
:100A5C003B681A687B6A22FA03F3002B7FF4D0AE52
:100A6C0000BF2C37BD4680BC704700BF0000211072
:100A7C0000001110000012100000311000003210A4
:100A8C00000022100010024000000140000801404C
:100A9C00000C014000100140001401400004014012
:100AAC0080B483B000AF78600B467B8013467B70BC
:100ABC007B78002B03D07A887B681A6103E07B88F3
:100ACC001A047B681A6100BF0C37BD4680BC7047A6
:100ADC0080B483B000AF78600B467B807B68DA68AB
:100AEC007B881340002B03D07A887B685A6102E024
:100AFC007A887B681A6100BF0C37BD4680BC704792
:100B0C0080B586B000AF78607B68002B01D10123E3
:100B1C006CE27B681B6803F00103002B00F08780FC
:100B2C00924B5B6803F00C03042B0CD08F4B5B686F
:100B3C0003F00C03082B12D18C4B5B6803F480334D
:100B4C00B3F5803F0BD1894B1B6803F40033002BAA
:100B5C006CD07B685B68002B68D1012346E27B6814
:100B6C005B68B3F5803F06D1804B1B687F4A43F42A
:100B7C00803313602EE07B685B68002B0CD17B4BC1
:100B8C001B687A4A23F480331360784B1B68774ACE
:100B9C0023F4802313601DE07B685B68B3F5A02F02
:100BAC000CD1724B1B68714A43F4802313606F4B5A
:100BBC001B686E4A43F4803313600BE06B4B1B686D
:100BCC006A4A23F480331360684B1B68674A23F42A
:100BDC00802313607B685B68002B13D0FFF7F6FC57
:100BEC00386108E0FFF7F2FC02463B69D31A642B2C
:100BFC0001D90323FAE15D4B1B6803F40033002B8E
:100C0C00F0D014E0FFF7E2FC386108E0FFF7DEFCFF
:100C1C0002463B69D31A642B01D90323E6E1534BFB
:100C2C001B6803F40033002BF0D100E000BF7B689D
:100C3C001B6803F00203002B63D04C4B5B6803F082
:100C4C000C03002B0BD0494B5B6803F00C03082BF7
:100C5C001CD1464B5B6803F48033002B16D1434BFD
:100C6C001B6803F00203002B05D07B681B69012B6A
:100C7C0001D00123BAE13D4B1B6823F0F8027B68DD
:100C8C005B69DB00394913430B603AE07B681B69F5
:100C9C00002B20D0364B01221A60FFF797FC3861ED
:100CAC0008E0FFF793FC02463B69D31A022B01D9EB
:100CBC0003239BE12D4B1B6803F00203002BF0D0A8
:100CCC002A4B1B6823F0F8027B685B69DB00274921
:100CDC0013430B6015E0264B00221A60FFF776FCDD
:100CEC00386108E0FFF772FC02463B69D31A022B0D
:100CFC0001D903237AE11D4B1B6803F00203002B7F
:100D0C00F0D17B681B6803F00803002B3AD07B689A
:100D1C009B69002B19D0174B01221A60FFF756FC68
:100D2C00386108E0FFF752FC02463B69D31A022BEC
:100D3C0001D903235AE10D4B5B6A03F00203002B2C
:100D4C00F0D0012000F0DAFA1CE00A4B00221A6005
:100D5C00FFF73CFC38610FE0FFF738FC02463B69BB
:100D6C00D31A022B08D9032340E100BF0010024024
:100D7C0000004242800442429E4B5B6A03F0020335
:100D8C00002BE9D17B681B6803F00403002B00F0F7
:100D9C00A6800023FB75974BDB6903F08053002B77
:100DAC000DD1944BDB69934A43F08053D361914B43
:100DBC00DB6903F08053BB60BB680123FB758E4B72
:100DCC001B6803F48073002B18D18B4B1B688A4A69
:100DDC0043F480731360FFF7F9FB386108E0FFF709
:100DEC00F5FB02463B69D31A642B01D90323FDE0C2
:100DFC00814B1B6803F48073002BF0D07B68DB689D
:100E0C00012B06D17B4B1B6A7A4A43F00103136218
:100E1C002DE07B68DB68002B0CD1764B1B6A754A86
:100E2C0023F001031362734B1B6A724A23F0040311
:100E3C0013621CE07B68DB68052B0CD16D4B1B6AC5
:100E4C006C4A43F0040313626A4B1B6A694A43F011
:100E5C00010313620BE0674B1B6A664A23F0010324
:100E6C001362644B1B6A634A23F0040313627B68AE
:100E7C00DB68002B15D0FFF7A9FB38610AE0FFF700
:100E8C00A5FB02463B69D31A41F28832934201D941
:100E9C000323ABE0574B1B6A03F00203002BEED08D
:100EAC0014E0FFF793FB38610AE0FFF78FFB024673
:100EBC003B69D31A41F28832934201D9032395E05E
:100ECC004C4B1B6A03F00203002BEED1FB7D012B74
:100EDC0005D1484BDB69474A23F08053D3617B68CB
:100EEC00DB69002B00F08180424B5B6803F00C0344
:100EFC00082B61D07B68DB69022B46D13F4B00226B
:100F0C001A60FFF763FB386108E0FFF75FFB0246EE
:100F1C003B69D31A022B01D9032367E0354B1B68BD
:100F2C0003F00073002BF0D17B681B6AB3F5803F94
:100F3C0008D1304B5B6823F400327B689B682D49E9
:100F4C0013434B602B4B5B6823F474127B68196A58
:100F5C007B685B6A0B43274913434B60274B012289
:100F6C001A60FFF733FB386108E0FFF72FFB0246EE
:100F7C003B69D31A022B01D9032337E01D4B1B68A5
:100F8C0003F00073002BF0D02FE01C4B00221A60F2
:100F9C00FFF71CFB386108E0FFF718FB02463B69C2
:100FAC00D31A022B01D9032320E0124B1B6803F048
:100FBC000073002BF0D118E07B68DB69012B01D1A9
:100FCC00012313E00B4B5B68FB60FB6803F480327E
:100FDC007B681B6A9A4206D1FB6803F470127B682B
:100FEC005B6A9A4201D0012300E0002318461837AF
:100FFC00BD4680BD001002400070004060004242BF
:10100C0080B584B000AF786039607B68002B01D16B
:10101C000123D0E06A4B1B6803F007033A689A423D
:10102C0010D9674B1B6823F0070265493B681343D3
:10103C000B60634B1B6803F007033A689A4201D0BC
:10104C000123B8E07B681B6803F00203002B20D05F
:10105C007B681B6803F00403002B05D0594B5B68BD
:10106C00584A43F4E06353607B681B6803F0080341
:10107C00002B05D0534B5B68524A43F460535360CA
:10108C00504B5B6823F0F0027B689B684D4913431F
:10109C004B607B681B6803F00103002B40D07B681E
:1010AC005B68012B07D1474B1B6803F40033002B03
:1010BC0015D101237FE07B685B68022B07D1414B84
:1010CC001B6803F00073002B09D1012373E03D4B27
:1010DC001B6803F00203002B01D101236BE0394B99
:1010EC005B6823F003027B685B68364913434B60F3
:1010FC00FFF76CFAF8600AE0FFF768FA0246FB6843
:10110C00D31A41F28832934201D9032353E02D4B79
:10111C005B6803F00C027B685B689B009A42EBD126
:10112C00274B1B6803F007033A689A4210D2244BF2
:10113C001B6823F0070222493B6813430B60204BCA
:10114C001B6803F007033A689A4201D0012332E08E
:10115C007B681B6803F00403002B08D0194B5B68F9
:10116C0023F4E0627B68DB68164913434B607B68B1
:10117C001B6803F00803002B09D0124B5B6823F4A7
:10118C0060527B681B69DB000E4913434B6000F017
:10119C0021F801460B4B5B681B0903F00F030A4A4D
:1011AC00D35C21FA03F3094A1360094B1B681846F8
:1011BC00FFF7CAF9002318461037BD4680BD00BFA3
:1011CC00002002400010024084190008000000209A
:1011DC000400002090B48AB000AF2A4B3C1D0FCB0A
:1011EC0084E80F00284B1B883B800023FB61002305
:1011FC00BB6100237B6200237B6100233B62234B9A
:10120C005B68FB61FB6903F00C03042B02D0082B19
:10121C0003D02DE01E4B3B622DE0FB699B0C03F0D1
:10122C000F0307F12802134413F8243C7B61FB697C
:10123C0003F48033002B13D0144B5B685B0C03F06E
:10124C00010307F12802134413F8283CBB617B69A6
:10125C000F4A02FB03F2BB69B2FBF3F37B6204E0BF
:10126C007B690C4A02FB03F37B627B6A3B6202E004
:10127C00074B3B6200BF3B6A18462837BD4690BC03
:10128C00704700BF70190008801900080010024058
:10129C0000127A0000093D0080B400AF024B1B68BD
:1012AC001846BD4680BC70470000002080B500AFDA
:1012BC00FFF7F2FF0146054B5B681B0A03F00703BF
:1012CC00034AD35C21FA03F3184680BD0010024098
:1012DC009419000880B500AFFFF7DEFF0146054BFF
:1012EC005B68DB0A03F00703034AD35C21FA03F3C0
:1012FC00184680BD001002409419000880B485B0D7
:10130C0000AF78600A4B1B680A4AA2FB03235B0AF6
:10131C007A6802FB03F3FB6000BFFB685A1EFA609D
:10132C00002BF9D100BF1437BD4680BC704700BFFD
:10133C0000000020D34D621080B582B000AF786001
:10134C007B68002B01D101233FE07B6893F8393097
:10135C00DBB2002B06D17B68002283F8382078683A
:10136C00FFF70CF87B68242283F839207B681B6814
:10137C00DA687B681B6822F40052DA60786800F047
:10138C000BF97B681B681A697B681B6822F4904216
:10139C001A617B681B685A697B681B6822F02A02F9
:1013AC005A617B681B68DA687B681B6842F40052E0
:1013BC00DA607B680022DA637B68202283F83920AC
:1013CC007B68202283F83A20002318460837BD4654
:1013DC0080BD80B588B002AFF860B9603B60134641
:1013EC00FB8000237B61FB6893F83930DBB2202B48
:1013FC0040F08380BB68002B02D0FB88002B01D10E
:10140C0001237BE0FB6893F83830012B01D10223D8
:10141C0074E0FB68012283F83820FB680022DA6351
:10142C00FB68212283F83920FFF7D0F87861FB683C
:10143C00FA889A84FB68FA88DA8442E0FB68DB8CD1
:10144C009BB2013B9AB2FB68DA84FB689B68B3F5EC
:10145C00805F22D13B6800937B6900228021F86871
:10146C0000F050F80346002B01D0032346E0BB6884
:10147C003B613B691B881A46FB681B68C2F3080278
:10148C005A60FB681B69002B03D1BB680233BB603D
:10149C0017E0BB680133BB6013E03B6800937B69CA
:1014AC0000228021F86800F02DF80346002B01D0B3
:1014BC00032323E0BB685A1CBA601A78FB681B68CC
:1014CC005A60FB68DB8C9BB2002BB7D13B68009356
:1014DC007B6900224021F86800F014F80346002BC9
:1014EC0001D003230AE0FB68202283F83920FB6833
:1014FC00002283F83820002300E002231846183716
:10150C00BD4680BD80B584B000AFF860B9603B606B
:10151C001346FB712CE0BB69B3F1FF3F28D0BB69CC
:10152C00002B07D0FFF752F802463B68D31ABA6972
:10153C009A421DD2FB681B68DA68FB681B6822F4B0
:10154C00D072DA60FB681B685A69FB681B6822F072
:10155C0001025A61FB68202283F83920FB682022A3
:10156C0083F83A20FB68002283F8382003230FE02D
:10157C00FB681B681A68BB681340BA689A420CBFB8
:10158C0001230023DBB21A46FB799A42C3D0002315
:10159C0018461037BD4680BD80B584B000AF78606A
:1015AC007B681B681B6923F440517B68DA687B6895
:1015BC001B680A431A617B689A687B681B691A432B
:1015CC007B685B691343FB607B681B68DB6823F4F7
:1015DC00B05323F00C037A681268F9680B43D3609C
:1015EC007B681B685B6923F440717B689A697B6834
:1015FC001B680A435A617B681B68524A93424ED15E
:10160C00FFF768FEB860BA6813469B0013449A0053
:10161C001A447B685B689B00B2FBF3F34A4AA2FB5B
:10162C0003235B091901BA6813469B0013449A0003
:10163C001A447B685B689B00B2FBF3F2424BA3FB42
:10164C0002035B09642000FB03F3D31A1B01323342
:10165C003D4AA2FB03235B0903F0F0031944BA686B
:10166C0013469B0013449A001A447B685B689B00EA
:10167C00B2FBF3F2344BA3FB02035B09642000FBC7
:10168C0003F3D31A1B0132332F4AA2FB03235B094A
:10169C0003F00F027B681B680A449A604DE0FFF769
:1016AC0005FEB860BA6813469B0013449A001A44AE
:1016BC007B685B689B00B2FBF3F3234AA2FB03231A
:1016CC005B091901BA6813469B0013449A001A442B
:1016DC007B685B689B00B2FBF3F21B4BA3FB020322
:1016EC005B09642000FB03F3D31A1B013233164A47
:1016FC00A2FB03235B0903F0F0031944BA681346F9
:10170C009B0013449A001A447B685B689B00B2FBF5
:10171C00F3F20D4BA3FB02035B09642000FB03F304
:10172C00D31A1B013233084AA2FB03235B0903F0D3
:10173C000F027B681B680A449A6000BF1037BD46D5
:10174C0080BD00BF003801401F85EB5170B50D4EB8
:10175C000D4D761BB61006D00024013455F8043B11
:10176C009847A642F9D1094E094D00F0EBF8761BCB
:10177C00B61006D00024013455F8043B9847A64215
:10178C00F9D170BDA0190008A0190008A81900080B
:10179C00A0190008F0B4860743D0541E002A3ED08E
:1017AC00CAB2034602E014F1FF3438D303F8012B1C
:1017BC009D07F8D1032C2BD9CDB245EA05250F2C6A
:1017CC0045EA054516D9A4F110073F0903F1200697
:1017DC0006EB071603F1100242E9045542E90255E3
:1017EC001032B242F8D104F00F040137032C03EB92
:1017FC0007130DD91E462246043A032A46F8045B09
:10180C00FAD8221F22F003020432134404F003041A
:10181C002CB1C9B21C4403F8011B9C42FBD1F0BC97
:10182C00704714460346C5E7024B13B1024800F05B
:10183C0005B8704700000000551800080023014649
:10184C001A46184600F01EB838B50A4C0A4D641BEF
:10185C00A4100AD004F18043013B05EB8305013C45
:10186C0055F804399847002CF9D1BDE8384000F000
:10187C006FB800BFAC190008A8190008704700BF6A
:10188C00704700BF2DE9F8432B4D06462868984653
:10189C000F469146FFF7F2FF284B1C68D4F84831ED
:1018AC00002B3DD05A681F2A0DDC02F1010C16BB2F
:1018BC000232C3F804C0286843F82270FFF7E0FF37
:1018CC000020BDE8F8831E4B7BB34FF4C870AFF318
:1018DC000080034648B30020D4F848114FF0010CA7
:1018EC00C3E900100246C4F84831C3F88801C3F8B4
:1018FC008C01002EDCD0012103EB8204C4F888900B
:10190C00D3F8880191400843022EC3F88801C4F82B
:10191C000881CDD1D3F88C010143C3F88C11C7E7F2
:10192C0004F5A673C4F84831BCE72868FFF7A8FF94
:10193C004FF0FF30C5E700BF380400209C190008A9
:10194C0000000000F8B500BFF8BC08BC9E4670470C
:0C195C00F8B500BFF8BC08BC9E46704700
:101968000122334455667700020304050607080977
:101978000A0B0C0D0E0F10100102000000000000F1
:101988000000000001020304060708090000000027
:0819980001020304100000200D
:0819A0003518000831010008B0
:0419A8000D01000825
:1019AC000024F40010000000010000000000000002
:1019BC0000000000FC02002064030020CC03002087
:1019CC00000000000000000000000000000000000B
:1019DC0000000000000000000000000000000000FB
:1019EC0000000000000000000000000000000000EB
:1019FC0000000000000000000000000000000000DB
:101A0C0000000000000000000000000000000000CA
:101A1C0000000000000000000000000000000000BA
:101A2C0000000000000000000000000000000000AA
:101A3C00000000000000000000000000000000009A
:101A4C00000000000000000000000000000000008A
:101A5C000000000000000000010000000000000079
:101A6C000E33CDAB34126DE6ECDE05000B0000003E
:101A7C00000000000000000000000000000000005A
:101A8C00000000000000000000000000000000004A
:101A9C00000000000000000000000000000000003A
:101AAC00000000000000000000000000000000002A
:0C1DDC0000000000000000009C0400203B
:04000005080004DD0E
:00000001FF
